:1000000000040010FD0000000000000000000000DF
:1000100000000000000000000000000000000000E0
:10002000074B8022D96F92000A43DA67054B002202
:100030000B211A67D9609A6001225A607047C04646
:100040000480044000400140014B98687047C0465E
:1000500000400140024B9B689842FBD87047C04665
:1000600000400140034A044B1020D1588143D15035
:100070007047C04600000150FC3F0000034A044B9B
:100080001020D1580143D1507047C04600000150A4
:10009000FC3F000008B5054A80231B02D158102000
:1000A0000143D150FFF7DEFF08BDC04600000150FC
:1000B00010B5041CFFF7E2FFFFF7C6FF0019FFF7BA
:1000C000C9FFFFF7CFFF10BD10B5FFF7E3FFFFF744
:1000D000A7FFFA246400201CFFF7EAFFFFF7B4FF34
:1000E000044B0A34C018FFF7B5FF034B9C42F2D90A
:1000F000EFE7C04650C30000C309000010B50F4B26
:100100000F4A191D043B934203D000221A600B1CB6
:10011000F6E70C4A0C490023891A89080131890045
:1001200004338B4207D0094CD0181C19043C2468B6
:1001300004380460F4E7FFF7C7FFFEE7040000108F
:10014000000000100000001000000010500100002E
:04000003000000FDFC
:00000001FF
