:10000000A808001029020000000000000000000005
:1000100000000000000000000000000000000000E0
:10002000F0B542464B4654465D4666467CB46A4649
:1000300002608D467CBCB446AB46A24699469046CB
:10004000F0BDC0460C4BF0B598680C4BC043196826
:1000500000021A1C000A0A4B884208D21E685F6818
:10006000802400256404A4197D411C605D6010603B
:100070001A6859681043F0BD10E000E00800001055
:100080000000001038B5144A144B154D9A63154BF7
:10009000154A2B60154B164C9A63164B2360FFF7DD
:1000A000D1FF154B5A688A4206DC02D11B68834295
:1000B00002D8124829680BE0FFF7C4FF104B5A68BA
:1000C0008A42ECDC02D11B688342E8D80B482168E5
:1000D000FFF7A6FFE3E7C0465101000064000010EF
:1000E0006000001078000010D50100001C00001016
:1000F000180000103000001058000010A000001080
:1001000010000010002208B50449054B1A60596020
:100110009A6001321A60FFF7B5FFC046FFFFFF008B
:1001200010E000E038B5041C0D1CFFF78BFF24180D
:100130004D41044B04481C605D60044B1968FFF797
:100140006FFF38BD5800001060000010A0000010C4
:100150008021104A4902D36F10B50B430721D367A2
:100160000D4A13688B4379310B4313600B4A703986
:1001700013680B4313600123094C5B422360094859
:100180000021FFF7CFFF0023064823600021FFF77F
:10019000C9FFF0E70480044094400440008001500F
:1001A00040000150804F120038B5041C0D1CFFF7B1
:1001B00049FF24184D41044B04481C605D60044B0A
:1001C0001968FFF72DFF38BD10000010180000104F
:1001D000A000001080210F4A4902D36F10B50B43D5
:1001E0000721D3670C4A13688B4313600B4A1931FC
:1001F00013680B4313600123094C5B4223600948D9
:100200000021FFF7D1FF0023064823600021FFF7FC
:10021000CBFFF0E704800440A04004400080015080
:100220008000015040771B0000221049104B10B590
:100230005B1A9B0801339B00101D984204D00024D8
:100240008A181460021CF7E700220A490A4B5B1A5D
:100250009B0801339B00101D984204D0074CA45802
:100260008C50021CF7E7FFF74DFFFEE7000000107F
:10027000A400001000000010000000108002000028
:0400000300000229CE
:00000001FF
