:100000000008001051000000000000000000000087
:1000100000000000000000000000000000000000E0
:1000200008B502F0A5FD00F03FF8034B002201F0F7
:10003000FFFA431E984108BD0000E03F07B50C20C1
:10004000FFF7EEFF6B46D871073300201B780EBD1B
:1000500000221049104B10B55B1A9B0801339B001E
:10006000101D984204D000248A181460021CF7E77F
:1000700000220A490A4B5B1A9B0801339B00101DA2
:10008000984204D0074CA4588C50021CF7E7FFF7A5
:10009000D5FFFEE700000010000000100000001077
:1000A00000000010402E000030B5254A4B0087B0FC
:1000B000051C0C1C5B0893421EDD224A934205DDA1
:1000C0002A1C231C02F0A4F907B030BD02AA00F0DC
:1000D0003BF803231840012822D0022813D000281F
:1000E00025D0049A059B0298039900F045FA8023D5
:1000F0001B069C466144E7E700230022009300238F
:1001000000F09CFFE0E70124049A059B0298039904
:10011000009400F093FF80231B069C466144D3E7C4
:10012000049A059B0298039900F026FACCE7012473
:1001300002980399049A059B009400F07FFFC3E79F
:10014000FB21E93FFFFFEF7FF0B556465F464D4686
:10015000E0B44B005E08D44B90B08A469E4200DC6F
:1001600089E0D24B91460C1C051C9E4222DCD04AF1
:10017000002C00DCBEE1CF4B02F04AF9CD4B041C51
:100180000D1C9E4200D190E0CB4ACC4B02F040F9CE
:10019000021C0B1C4946201C0A604B60291C02F003
:1001A00037F9C64BC44A02F033F94B469860D96020
:1001B000012069E0C24B9E4200DC93E0C14B9E42AD
:1001C00068DCC14932158B4693445B461B05F51A22
:1001D000291C041C02F096FC02F0CAFC021C0B1C39
:1001E000201C291C0A920B9302F012F90022B74B33
:1001F00001F074FE0F1C061C02F084FC02F0B8FC37
:10020000041C0D1C221C2B1C301C391C0C940D953D
:1002100002F0FEF80022AD4B01F060FE0022002348
:100220000E900F9101F0EAF9002800D181E100233E
:100230000022201C291C01F0E1F90222431E9841F2
:10024000131A02220092A24A0AA8019249465A466B
:1002500000F0ACFA5346002B16DA80224B46120609
:1002600094464A465B68404263445360D3684A46BA
:100270006344D36008E0041C0D1C00200021906042
:10028000D16000201460556010B01CBC91469A46A5
:10029000A346F0BD53462A1C02F0BAF84B469860BC
:1002A000D960186059600020EEE7D322834B5205D5
:1002B00002F0AEF8874A884B041C0D1C02F0A8F827
:1002C000021C0B1C4946201C0A604B60291C02F0D2
:1002D0009FF8814B7F4A02F09BF84B469860D960AB
:1002E0000120D1E700F05AFF7C4A7D4B041C0D1C15
:1002F00001F0F4FD00227B4B01F0AEF902F002FCAC
:10030000071C02F035FC6A4A6A4B0490059101F023
:10031000E5FD021C0B1C201C291C02F079F8664A22
:100320000290039104980599644B01F0D7FD069063
:100330000791029803991F2F33DC7B1E6A4A9B00AA
:100340009B58B3422DD0069A079B02F061F80B1C14
:100350000C1C021C4946051C0A604B60029803995C
:100360002A1C231C02F054F8069A079B02F050F84E
:10037000061C0B1C4846321C8260C3605346381C66
:10038000002B00DB80E74B461D6080231B069C464C
:100390004B4664445C609E604B466144D960784241
:1003A00072E7069A079B02F033F80B1C0C1C021C28
:1003B00049460A604B60630036155B0D051CF31A55
:1003C000102BCBDD04980599D3223C4B520501F04C
:1003D00085FD041C0D1C02980399221C2B1C02F0A5
:1003E00017F8021C0B1C029803990892099302F05B
:1003F0000FF8221C2B1C02F00BF8041C0D1C049897
:100400000599344A344B01F069FD221C2B1C01F084
:10041000FFFF031C0C1C08980999069307941A1CEB
:10042000231C01F0F5FF021C0B1C051C4846026052
:1004300043604B005B0D0C1C0899099AF31A02915A
:100440000392312B8ADD04980599B822224B92053C
:1004500001F044FD041C0D1C02980399221C2B1C66
:1004600001F0D6FF021C0B1C089809990292039315
:1004700001F0CEFF221C2B1C01F0CAFF041C0D1C36
:1004800004980599194A1A4B01F028FD221C2B1CCF
:1004900001F0BEFF031C0C1C0298039906930794FD
:1004A0001A1C231C51E7C046FB21E93F7BD90240BF
:1004B00000004054FB21F93F3163621A61B4D03D22
:1004C000FB213941FFFFEF7FEAFBFFFF0000704196
:1004D000A42C00007370032E8A19A33B83C8C96D36
:1004E000305FE43F0000E03F242C0000C14920259C
:1004F0009A837B391B4B01F0AFF81A4B041C0D1C7F
:100500009E4218D0184A194B01F0A6F8021C0B1C89
:100510004946201C0A604B60291C01F079FF124AF1
:10052000124B01F099F84B469860D9600120404287
:10053000AAE6032385E6D3220C4B520501F08CF882
:100540000B4A0C4B041C0D1C01F086F8021C0B1C02
:100550004946201C0A604B60291C01F059FF044ADF
:10056000044BDEE7FB21F93F3163621A61B4D03DF1
:100570007370032E8A19A33BF0B54F464646C0B4AC
:1005800087B000920193754B4F00814688467F08E3
:100590009F4263DC02F0B6FA002800D1DAE04A4656
:1005A00043464846414601F099FC041C0D1C6C4A28
:1005B0006C4B01F093FC6C4A6C4B01F04DF8221C23
:1005C0002B1C01F08BFC6A4A6A4B01F021FF221CB4
:1005D0002B1C01F083FC684A684B01F03DF8221C9B
:1005E0002B1C01F07BFC664A664B01F011FF221CBC
:1005F0002B1C01F073FC644A644B01F02DF8221CA3
:100600002B1C01F06BFC02900391201C291C002282
:100610005F4B01F063FC029A039B061C0F1C201C1D
:10062000291C01F05BFC009A019B041C0D1C484630
:10063000414601F053FC021C0B1C201C291C01F03C
:10064000E7FE021C0B1C301C391C01F0E1FE021CF1
:100650000B1C00204F4901F0DBFE70E04A46434688
:1006600001F03CFC041C0D1C3D4A3E4B01F036FCE5
:100670003D4A3E4B00F0F0FF221C2B1C01F02EFCEB
:100680003B4A3C4B01F0C4FE221C2B1C01F026FC13
:10069000394A3A4B00F0E0FF221C2B1C01F01EFCF3
:1006A000374A384B01F0B4FE221C2B1C01F016FC1B
:1006B000354A364B00F0D0FF2B1C221C01F00EFCFB
:1006C000354B029003919F429FDD344B00229F42A5
:1006D0003ADC334900207B182E49161C1F1C01F000
:1006E00097FE04900591201C291C0022284B01F044
:1006F000F5FB321C3B1C01F08BFE029A039B061C8F
:100700000F1C201C291C01F0E9FB009A019B041C12
:100710000D1C4846414601F0E1FB021C0B1C201C4D
:10072000291C01F075FE021C0B1C301C391C01F049
:100730006FFE021C0B1C0498059901F069FE07B0BE
:100740000CBC90469946F0BD164B002604920593CA
:10075000154FC8E700200F49F1E7C046FFFF3F3EB5
:10076000D43888BEE9FAA8BDC4B1B4BD9EEE213E1E
:10077000AD529C804F7E923E9015CB19A001FA3E5F
:100780007751C1166CC1563F4C5555555555A53F2F
:100790000000E03F0000F03F3233D33F0000E93F6C
:1007A0000000E0FF0000E73F0000D23FF0B55646F2
:1007B0004D4644465F46F0B48E4CA5440891191C42
:1007C000141CA69A09938C4B9200D2580B1C0290D1
:1007D000013BE01E18211D1C161C0792009300F01F
:1007E0000BFEC343021CDB171A40D343111C0C92AF
:1007F0005A00D318DB001B1904934C1BAE1918D4F4
:10080000A79BA5009C46A61924AF6544013607E0C6
:10081000286802F0ADF9013403C70435B44208D0AA
:10082000002CF5DA00200021013403C70435B4425E
:10083000F6D1079B002B01DA00F0ECFB0022079BAE
:1008400091460133DB009A46099B74AADB000692AD
:1008500008229C465242624493460393009B002B1D
:1008600000DA90E224AB9C465C464B46E04600260C
:1008700000274C44083B029D644498442268636806
:1008800003CD01F02BFB021C0B1C301C391C00F0AB
:10089000E3FE083C061C0F1C4445EFD1069B4B446D
:1008A0001E605F6008239C46E144D145D6D1079A7B
:1008B0005249131C8C4663449B0010A8191C8446A3
:1008C00091460433614463440B910D934B46DB0026
:1008D0001A1C06990A9394460B1C63441E685F68B1
:1008E0004B46002B32DD884610AB9A46444B4B44B6
:1008F000DB00984472AB9B460022424B301C391CF3
:1009000001F0ECFA02F0FEF802F032F900223E4B60
:10091000041C0D1C01F0E2FA021C0B1C301C391CDB
:1009200001F076FD02F0EEF8534601C39A464346C5
:10093000201C1A685B68291C00F08EFE08235B42AD
:100940009C46E044061C0F1CD845D5D1049B301CA6
:100950001A1C391C984600F0CBFCFF2300229B0593
:10096000041C0D1C01F0BAFA00F01CFC0022274BFD
:1009700001F0B4FA021C0B1C201C291C01F048FDDC
:100980000D1C041C02F0BEF8824602F0F1F8021CB5
:100990000B1C201C291C01F03BFD061C40460F1CB3
:1009A000002800DCCFE14B465A1E920010AB9B584A
:1009B0001825191C2D1A29418A44A94017255B1AAC
:1009C0002D1A10A98B502B410593059B002B4CDD54
:1009D00001239C464B46E244002B00DC18E38025B3
:1009E0000E960F9710AB0021002409486D044E4667
:1009F00019E0C0468CFDFFFFAC2D0000FEFFFF3F5D
:100A0000FFFFFF1F0000703E00007041000020400B
:100A1000FFFFFF00002A02D0AA1A1A600134013138
:100A200004338E4209DD1A68002CF3D0821A01319A
:100A30001A60012404338E42F5DCB1460E9E0F9FEE
:100A4000049B002B0EDD012B00D187E1022B09D185
:100A50004B465A1E920010AB9B5810A90E939B0256
:100A60009B0A8B50059B022B7AD0301C391C00222C
:100A7000002300F0C3FD002800D192E04B46591E30
:100A8000079B8B420FDC10AA94460022CE4B0D9898
:100A90004B449B0063441C68043B22438342FAD1CD
:100AA000002A00D0E5E1079B10AA013B9B00D35828
:100AB000002B00D0AAE201220B9B043B59680132B3
:100AC0000029FAD04B464A4401330592934241DC57
:100AD000A7990C9A8A469A18920092440A9A069903
:100AE0009146009A8B469446099A63449B1A24AA1D
:100AF0009046DB009844059BD944DB009B44039B54
:100B000043441C1C5346186802F032F8009B2060D6
:100B10006160002B21DB00260027029D22686368AC
:100B200003CD01F0DBF9021C0B1C301C391C00F05A
:100B300093FD083C061C0F1C4445EFD14B469E60BC
:100B4000DF6004239C460433E2449C46E144E044D5
:100B5000D945D4D1059B9946B8E600260027EDE794
:100B6000321C3B1C0020994901F052FC061C0F1C52
:100B7000002C00D179E7049A0020944900F0B8FBDA
:100B8000021C0B1C301C391C01F042FC061C0F1C03
:100B9000301C391C0022002300F030FD002800D05A
:100BA0006CE753460993049B301C5A42391C00F0F1
:100BB0009FFB0022864B041C0D1C00F043FD002807
:100BC00000D12DE20022834B201C291C01F086F964
:100BD00001F098FF4B46061C9F0001F0C9FF002260
:100BE0007B4B01F07BF9021C0B1C201C291C01F023
:100BF0000FFC01F087FF10ABD85101234B449846FE
:100C0000049B10AA1833049343469B00D65000203F
:100C10006E49049A00F06CFB4346041C0D1C002B2B
:100C200000DAC8E09F0010AB9C464346DB006744F7
:100C30009C46039372AB9946069E664400963868BC
:100C400001F096FF221C2B1C01F048F900223060B5
:100C50007160604B201C291C01F040F9083E041C07
:100C60000D1C043F4E45EAD1434601330293002355
:100C70009B464CAB9946079B9A4643460493534682
:100C8000002B00DA94E05B46002B00DA90E0524B38
:100C9000009D984600260027002405E008239C4676
:100CA0000835E0445C4511DC4346186859682A68F9
:100CB0006B6801F013F9021C0B1C301C391C00F08E
:100CC000CBFC0134061C0F1CA245E7DA5B46DB00B7
:100CD0004B441E605F6001239C46009BE344083B3D
:100CE0000093029B9B45CAD1049B9846A69B022B6E
:100CF00000DD00E1002B00DDD7E018D1039B0020D0
:100D00004B441C1C002145462268636800F0A4FC8B
:100D1000083C013DF8D2059B002B03D080231B0625
:100D20009C4661440B1C021C08990A604B6007201A
:100D3000099B18409D239B009D443CBC90469946CE
:100D4000A246AB46F0BD049B002B12D14B46013BA3
:100D50009B0010AAD558EB15059336E64B465A1E54
:100D6000920010AB9B5810A90E935B025B0A8B504C
:100D700078E6301C0022194B00F064FC002805D1F5
:100D80000023059371E60026002787E501239C4692
:100D9000013305934B46E244002B00DD1FE6321C75
:100DA0003B1C0020094901F033FB061C0F1C5CE6CC
:100DB000002600278AE7A69B022B39DC002B0FDCDC
:100DC000B5D100200021A6E7FFFFFF3F0000F03F64
:100DD000000070410000703EC02D00000000E03FA8
:100DE000059900220023002973D080210898090664
:100DF0005918026041604C984D9901F009FB434637
:100E0000002B0BDD012446464EAD0CCD013400F025
:100E100023FCA642F9DA059B002B03D080231B0696
:100E20009C4661440B1C021C08998A60CB607EE7DB
:100E30004CAB9946A69B032B00D078E7059B00207E
:100E40000021002B00D1D0E08024089A4C9B24067E
:100E500013604B46A4465B686144634453604B4651
:100E60009B68106193604B46DB6851616344D360BB
:100E70005DE7534688460993434604999B0010AAB0
:100E8000D35818390491002B00D0C0E6944642464E
:100E9000684B43449B006344043B5868013A18394B
:100EA0000028F9D090460491B1E6039B00224B4400
:100EB0001C1C00234AAD101C191C2268636800F03A
:100EC000CBFB083C021C0B1CAC42F4D10599002959
:100ED0008BD1191C101C089C206061604C984D99A6
:100EE00001F096FA4346002B8CDC0B1C021C08997F
:100EF0008A60CB601BE7A69B032B00D017E7434615
:100F0000002B9BDD039B4B441E685F684A4B4344A8
:100F10009B46DB004B449A465346301C5C681B687A
:100F2000391C009301941A1C231C00F095FB041C2F
:100F30000D1C00980199221C2B1C01F069FA0B1C56
:100F4000021C391C301C00F087FB53469860D960A6
:100F50001C605D6008235B429C464AABE244261C51
:100F60002F1C9A45D8D14346012B00DC66E7039B32
:100F7000CA464B441E685F685B46DB009846C24425
:100F80005346321C5C681B6800930194181C211C9A
:100F90003B1C00F061FB041C0D1C00980199221CF5
:100FA0002B1C01F035FA3B1C321C00F055FB53465C
:100FB0009860D9601C605D6008235B429C46E244F7
:100FC000261C2F1CD145DBD14446002000210834CB
:100FD0004C444EAD22686368083C00F03DFBAC42D7
:100FE000F8D1059B002B00D02EE74C9A4D9B089C16
:100FF000226063604B469A68DB6800920193A260AE
:10100000E360021C0B1C2261636190E6012259E53A
:10101000002415E5099BDB00039374AB069346E4BB
:101020004B46201C291C9E0001F06CFD10AB985112
:10103000C846ECE5FFFFFF3FFFFFFF1FF0B54F463F
:101040004646C0B487B000920193464A4B008146A1
:1010500088465B08934207DC4146484601F052FD52
:101060004146031E484664D04A46434648464146E8
:1010700000F034FF4A464346041C0D1C00F02EFFCE
:10108000394A3A4B061C0F1C201C291C00F026FF75
:10109000374A384B01F0BCF9221C2B1C00F01EFF14
:1010A000354A364B00F0D8FA221C2B1C00F016FFF4
:1010B000334A344B01F0ACF9221C2B1C00F00EFF1C
:1010C000314B324A00F0C8FA0E9B02900391002B7C
:1010D00034D00098019900222D4B00F0FFFE029AB7
:1010E000039B04900591301C391C00F0F7FE021C94
:1010F0000B1C0498059901F08BF9221C2B1C00F0A5
:10110000EDFE009A019B01F083F9224A041C0D1C9C
:10111000214B301C391C00F0E1FE021C0B1C201C72
:10112000291C00F099FA021C0B1C4846414601F0AC
:101130006FF907B00CBC90469946F0BD029A039B2C
:10114000201C291C00F0CAFE124A134B01F060F962
:10115000321C3B1C00F0C2FE4A46434600F07CFABB
:10116000E7E7C046FFFF3F3E7CD5CF5A3AD9E53D81
:10117000EB9C2B8AE6E55A3E7DFEB157E31DC73E48
:10118000D561C119A0012A3F1111813FA6F81011A4
:101190000000E03F495555555555C53F49004B089E
:1011A000191C7047F0B55F464D4644465646F0B4AC
:1011B000484B4D006D0DEF1883B0061C0C1C884683
:1011C0008B468146132F27DC002F54DB424D4146CE
:1011D0003D4129400143021C231C002913D03F4AF2
:1011E0003F4B211C00F038FA0022002300F020FAC7
:1011F000002806D0002C4EDB5B46AB43984600230C
:10120000994643464A46101C191C03B03CBC904604
:101210009946A246AB46F0BD332F0CDD0B1C802156
:10122000021CC9008F42EED1321C211C00F014FABE
:10123000021C0B1CE7E701222A4B5242EB18DA4052
:10124000111C0192231C021C0142DCD0234A244BB6
:10125000211C00F001FA0022002300F0E9F9002827
:10126000CFD0002C1CDB4B46019AD84693439946BD
:1012700043464A46C7E7194A194B00F0EDF90022E8
:10128000002300F0D5F90028BBD0002C15DB00238B
:1012900099469846B5E780235B033B419B44ABE707
:1012A000142F13D0104B5D1B0123AB409946B14462
:1012B000B1459B415B429B44D5E700236400640831
:1012C000264399469DD0094B98469AE701239C46B0
:1012D000E344C8E701FCFFFFFFFF0F009C75008897
:1012E0003CE4377EEDFBFFFF330400000000F0BF5D
:1012F000F8B5314F161C3B1C0B40041C0D1C0A1C7E
:101300001B1520D14B005B0803431BD000222B4B45
:1013100000F0E4FD2A4B041C0D1C0A1C9E4222DB3B
:101320000F403F153B1C2749363B9B198B4211DD73
:10133000221C2B1C2448254900F056F8224A234B36
:1013400000F0CCFDF8BD22498B4222D01D499B19EB
:101350008B42EDDC002B0BDD1E491B050A401343BD
:10136000201C191CEEE71C4A1C4B00F0B7FDE9E7F6
:10137000191C353113DA1A4B9E42D9DC221C2B1C66
:101380001548164900F030F8134A144B00F0A6FD3A
:10139000D8E7291C221C2B1C00F05EF9D2E70D496E
:1013A00036330A401B051343201C191C00220D4B29
:1013B00000F094FDC6E7C0460000F07F00005043F7
:1013C000B03CFFFFFE0700009C7500883CE4377EC0
:1013D000FF070000FFFF0F8059F3F8C21F6EA50141
:1013E00050C300000000903C30B54A00DB0F5208AB
:1013F000DB071343191C30BD03460B437FD4002287
:1014000043088B4274D303098B425FD3030A8B4298
:1014100044D3030B8B4228D3030C8B420DD3FF2202
:10142000090212BA030C8B4202D31212090265D0D0
:10143000030B8B4219D300E0090AC30B8B4201D383
:10144000CB03C01A5241830B8B4201D38B03C01ACA
:101450005241430B8B4201D34B03C01A5241030B41
:101460008B4201D30B03C01A5241C30A8B4201D3F2
:10147000CB02C01A5241830A8B4201D38B02C01A9D
:101480005241430A8B4201D34B02C01A5241030A14
:101490008B4201D30B02C01A5241CDD2C3098B42F9
:1014A00001D3CB01C01A524183098B4201D38B0176
:1014B000C01A524143098B4201D34B01C01A524119
:1014C00003098B4201D30B01C01A5241C3088B425E
:1014D00001D3CB00C01A524183088B4201D38B0049
:1014E000C01A524143088B4201D34B00C01A5241EB
:1014F000411A00D201465241104670475DE0CA0FC2
:1015000000D04942031000D34042534000229C4681
:1015100003098B422DD3030A8B4212D3FC2289018B
:1015200012BA030A8B420CD3890192118B4208D361
:10153000890192118B4204D389013AD0921100E0C3
:101540008909C3098B4201D3CB01C01A52418309D7
:101550008B4201D38B01C01A524143098B4201D304
:101560004B01C01A524103098B4201D30B01C01A2F
:101570005241C3088B4201D3CB00C01A52418308A9
:101580008B4201D38B00C01A5241D9D243088B42FF
:1015900001D34B00C01A5241411A00D201466346A2
:1015A00052415B10104601D34042002B00D5494206
:1015B000704763465B1000D3404201B5002000F045
:1015C0000BF802BD0029F8D003B5FFF715FF0EBCDC
:1015D0004243891A1847C0467047C0468446101CCB
:1015E00062468C46191C634600E0C0461FB500F0F9
:1015F0000FFC002801D40021C8421FBD10B500F027
:1016000053FB4042013010BD10B500F001FC002832
:1016100001DB002010BD012010BDC04610B500F058
:10162000F7FB002801DD002010BD012010BDC046E1
:1016300010B500F07DFB002801DC002010BD01206A
:1016400010BDC04610B500F073FB002801DA002081
:1016500010BD012010BDC046F0B5454657464E4668
:1016600094464C000A03C90FE0B488460E1C1903C7
:10167000470FC500480A6146490F01436046520AB8
:101680001743C0005A00640D520DDB0F8446984585
:1016900000D1A7E0A01A002800DC01E1002A3DD11A
:1016A00063460B4300D0D4E06B0700D188E00F23E2
:1016B0002B40042B00D183E02A1DAA42AD41802398
:1016C0006D427F191B043B404646151C002B00D180
:1016D0007CE0CC4B01349C4200D1FDE03A1CCA4B6B
:1016E000ED081A405007640552020543120B640DC1
:1016F000002112030B0D1B056405120B1A4363082E
:10170000C24CF60714401C43640064083443281C90
:10171000211C1CBC90469946A246F0BDB94B9C4288
:10172000C2D080231B041943382800DDECE01F28B9
:1017300000DD21E120220E1C6346121A9640C340B0
:10174000334366469640321C561EB24113430A1C70
:10175000C240EB1A9D42B6411D1CBA1A7642971B35
:101760003B0200D497E07A02560A002E00D1B6E080
:10177000301C01F039FA031C083B1F2B00DDB7E0D9
:101780009E40371C28262A1C361AF240161C9D4003
:101790003E439C4200DDB2E01C1B621C1F2A00DDA0
:1017A000D8E01F23291C1C1B331CA540A340D1409B
:1017B0006C1EA541D64019430D43371C002473E726
:1017C00080231B043B40464600D082E78D4BED084A
:1017D00078070543FA089C4232D012036405120BC5
:1017E000640D85E7A31A002B00DC94E0002A3CD0AE
:1017F000844A944200D157E7802212041143382BC7
:1018000000DC05E163461943481E81410022C8B24D
:101810004019A8429B41051CD2195B42D7183B02D4
:1018200039D5784B01349C4200D14CE10120764AF5
:101830006B083A4028401843D5070543570833E75B
:101840002B1C134348D080231B031A431203120B93
:101850004EE70138002878D16346EE1AB5429B4125
:101860007A1A5B42D71A351C7AE7021C0A4300D168
:101870001AE7013B002B00D0F2E04019A8429B413F
:10188000CA195B42D718051CC9E7131C334300D1A2
:1018900018E1171C351C46466B0700D007E795E793
:1018A00000287AD1621C5205520D012A00DCFBE0AF
:1018B0006246AA1A9542B6419146781A7242861A31
:1018C000320200D493E06246551BAC458041CF1BE9
:1018D00040423E1A984648E70022002508E7281CA7
:1018E00001F082F92030031C083B1F2B00DC47E786
:1018F000283885402E1C00259C4200DC4CE7424ADB
:10190000E41A1640371CCFE6634619434B1E994133
:101910000022CBB21DE7002B00D0F2E0601C430593
:101920005B0D012B00DCA4E0364B984200D121E195
:1019300063465C19AC429B41CF195B42FA186408BC
:10194000D50725435708041CAEE62E4B9C4200D019
:10195000EAE6A9E6211C331C1F39CB40191C202ABA
:1019600000D182E03F231C1BA64035436E1EB541CB
:1019700000270D4300248EE7031C0E1C203BDE4095
:10198000202874D040231B1A99400B1C6246134335
:10199000591E8B4100223343DBE6002C50D0194CFA
:1019A000A24200D1A8E080242404404227433828E2
:1019B00000DDD9E01F2800DD39E120243E1C241A77
:1019C000A640B0462E1CA146C640444626434C467F
:1019D000A5406C1EA541C74035436046451BCF1B43
:1019E000AC45894149427F1A141C9846B8E64B46DB
:1019F0004D46334300D0B8E60026002700240025DA
:101A0000E4E6C046FF070000FFFF7FFFFFFF0F80F7
:101A10001F2B5BDC2022081CD21A904081466046B6
:101A20009246D8404A46104381465246604690400E
:101A3000021C501E8241484610430A1CDA40E7E669
:101A40003C1C2C4358D0C043002851D16046451B54
:101A5000AC458041CF1B40423F1A141C98467FE69C
:101A60008F4A944200D0CAE61EE600267DE7002396
:101A70008CE73B1C2B43002C00D0BDE0002B00D199
:101A8000F5E063460B4300D10EE663465B19AB42BB
:101A90008041CA19404217183A0200D4FCE0814A3A
:101AA0001D1C17400134FFE53A1C2A43002C51D17C
:101AB000002A00D085E062460A4303D00F1C654629
:101AC0009846F1E50026002700257FE6181C0A1C31
:101AD0002038C240202B00D1A7E04020C01A81400E
:101AE000081C63461843411E8841104300228FE6BC
:101AF0006B4CA24200D05AE70F1C6546141C984656
:101B0000D2E5002C3AD1381C284371D0DB43002B9E
:101B100018D0634882426BD0382B00DD9DE01F2B2C
:101B200000DDA7E020203C1CC01A8440A1462C1CEC
:101B30008246DC404846044350468540681E854145
:101B4000DF402543654465459B417F185B42FF1894
:101B5000141C64E6002A19D162460A4377D00F1C90
:101B6000654698464E4C9FE53D436F1EBD4100279C
:101B7000EDB232E7041C0027002527E648488242E0
:101B800036D0802000045B420743C5E762460A4323
:101B900049D08024ED087807FA082403284322421C
:101BA00009D0CE08264206D162464F07381CD2081B
:101BB00010439846321CD200470F1743C500384CDB
:101BC00072E562460A4300D16EE56246AE1AB5423E
:101BD0009241781A5242821A100200D455E66246A7
:101BE000551BAC458041CA1B4042171A98465BE51D
:101BF0000F1C6546141C57E5002B34D063460B437D
:101C000011D08024ED087807FA08240328432242E3
:101C1000D1D0CB082342CED162464F07381CD20820
:101C200010431A1CC7E71E4C3EE5002059E7041C70
:101C30003E1C203CE640341C20282BD04026301A85
:101C400087403D436F1EBD4100272543C5E68027E1
:101C50000026FF03124C0025B8E53D436F1EBD4131
:101C60000027EDB26EE70F1C65460D4C1CE50F1CFE
:101C7000654619E51C1C381C203CE040041C202B48
:101C80000CD04020C31A9F403D436F1EBD4100272A
:101C9000254357E70027D4E71D1CFCE50027F3E7A1
:101CA000FF070000FFFF7FFFF0B55F464D4644464B
:101CB0005646F0B41F035C00DB0F99461B4B0E0326
:101CC0004D00C90F8446360B6D0D8B4690463F0B79
:101CD000640D9D420CD0154B9C4210D00123A542AF
:101CE00014D0181C3CBC90469946A246AB46F0BDA9
:101CF000311C01230143F4D10C4B9C42EED13A43F9
:101D00000123002AEDD10123A542EAD1BE42E8D148
:101D1000C445E6D1CB4506D0002DE2D13043031CAB
:101D2000581E8341DDE70023DBE7C046FF070000C4
:101D3000F0B5574645464E46E0B40F034E00C90F76
:101D40008A4632491D035C0084463F0B760D90465F
:101D50002D0B640DDB0F8E420FD08C4239D0002E3C
:101D600010D13843414241418946002C27D12A43B2
:101D700025D1002000290ED108E0391C01432ED1C5
:101D8000B44226D0002C0BD09A450DD05346594270
:101D900001231943081C1CBC90469946A246F0BD7D
:101DA0002A43F3D09A45F1D1A642EFDC1ADA504625
:101DB00041424841012341421943081CEBE74A468E
:101DC000002AE1D058425841012241421143081CE7
:101DD000E1E7291C114302D1002EC2D0D4E7022032
:101DE0004042D8E7AF42D1D809D00020AF42D2D28A
:101DF000504641424841012340421843CBE7C44585
:101E0000C4D80020C445F3D3C5E7C046FF0700008F
:101E1000F0B55F464D46444656468046F0B4061C33
:101E20000803000B84462C484C001F035D00C90FBB
:101E3000640D8B4691463F0B6D0DDB0F844212D033
:101E4000854225D0002C14D161460E437042464194
:101E5000002D35D0002E21D0584258410121434257
:101E60000B43181C0EE06146022031430AD1A54203
:101E70000ED0002D12D13A4310D15B4659420123B6
:101E80001943081C3CBC90469946A246AB46F0BD9F
:101E9000391C02201143F5D1002CD5D09B45ECD143
:101EA000AC42EADC05DBBC45E7D80FD00020BC45DE
:101EB000E8D2584641424841414201200843E1E707
:101EC0003A43C7D10020002EDCD1D6E7C845D4D88C
:101ED0000020C845EDD3D5E7FF070000F0B55F4609
:101EE00056464D464446F0B4051C061C080387B010
:101EF00099464F00030BCC0F92469B467F0D0194F1
:101F000067D06C4B9F4236D080205B46400318431D
:101F1000C0006B0F1843684B83469C4600239846CD
:101F2000EE00674400934B4649461D03C90F5B0012
:101F300052462D0B5B0D894600D16EE05D498B4208
:101F400064D080205C4940038C4600210543ED00AD
:101F5000500F0543D20063444846FF187B1C9A4645
:101F6000009B604002900B430F2B00D9ACE053481C
:101F70009B00C3589F465B461D4300D082E0082368
:101F8000009300239B46023300269846CBE7029B32
:101F900001934346022B59D1012400250026019BC1
:101FA0001C40444B00212D030A0D12052D0B154337
:101FB000434A1B0515401D436D00E4076D0825438A
:101FC000301C291C07B03CBC90469946A246AB4643
:101FD000F0BD2B434ED05B46002B00D185E1584627
:101FE00000F002FE021C2823291C9B1A161C5846CE
:101FF000D940083EB0400B1CB54003439B462E1C05
:102000000023304F0093BF1A98468CE7514629436E
:102010002ED10025002202219EE75146294323D0DC
:10202000002D00D154E1281C00F0DEFD031C282106
:102030005046C91A1A1CC8405146083A914095406A
:102040000A1C05431F480021C31A85E7032B00D152
:10205000C2E1012B00D06DE14446019B00251C40EC
:10206000E4B2002300269DE700250022012173E74A
:10207000032171E70423009300239B4601330026CC
:10208000984650E70C230093093B98464BE7802580
:1020900000242D030026074B84E74B46AB46161C55
:1020A0000193884675E7029BAB46161C0193884650
:1020B0006FE7C046FF07000001FCFFFF002E000095
:1020C000FFFF0F800DFCFFFF330C3604360C9C46DF
:1020D000331C140C1204120C5343984663465343AA
:1020E0009946634663430193331C41466343090C9D
:1020F0004B445B18994505D98020400281460199DF
:1021000049440191190C039141460904090C1B042F
:102110005B1804932B0C9846331C2D04290C4B435D
:10212000604600934346654658435E43009B4D43DB
:102130001B0C9946AE194E448446B54203D9802300
:102140005B029946CC44350C2B1C039863448446AF
:102150000593009B36041B041B0CF3189C4460463B
:10216000039058460504060C280C84465043351C41
:1021700081466046654344434846000C83467243AB
:1021800014195C44A24203D98022520293465D4452
:10219000220CAD184A461204120C24044046A4181E
:1021A00062464A4371434643604600964646704342
:1021B0008046100C84468844E044414505D980217E
:1021C00049028C4600996144009101980399844624
:1021D000614499429B415B42994605984346844637
:1021E0001204120C1B049B1863449C46AB468342AA
:1021F0009B4140460A19CC44A2428941E344CC4564
:10220000B6415C46000C8046494276425B42641807
:10221000334398448C428941AB459B4149425B42E0
:1022200019430D1C009B4544EE187602E50D2E4324
:10223000B346049B56021E43731E9E415B46D20D5D
:10224000324366021643DB010AD501233340760888
:102250001E435B46DB071E435B465B089B465746B7
:10226000634BFB18002B5ADD720709D00F22324056
:10227000042A05D0321DB242B6417642B344161C40
:102280005A46D20106D55A465A4B1A4080239346E5
:10229000DB00FB18584A934234DD0124029B0025E1
:1022A0001C400026554B7DE680205B460003034220
:1022B00008D0054206D105432D032D0B4C46161CB4
:1022C0004E4B6FE65D4605432D032D0B4B4B69E6E8
:1022D000504600F089FC031C2033272B00DCA6E6C7
:1022E0005546083885400022ACE6281C00F07CFCEE
:1022F000021C2032272A00DC75E6083885400026BB
:10230000AB467DE65A46F608520716435A46012464
:102310005502029A5B052D0B5B0D144042E6384DC9
:10232000ED1B382D0ADD0124029B00251C400026F0
:10233000002337E6019B5746029391E71F2D25DCCA
:10234000304B321C9C466744BE405B46BB40371C4A
:10235000EA407E1EB74113433B431E1C5B46EB40E5
:102360001D1C730709D00F233340042B05D0331DE8
:10237000B342B6417642AD191E1C2B0220D5012472
:10238000029B00251C40002601230BE65A461E4BEB
:10239000DB1BDA40131C202D1CD01C4A94465A46E5
:1023A0006744BA40171C3E43721E96411E430723E2
:1023B0000025334007D00F2300253340042BD6D10E
:1023C0006B076D022D0B0124F6081E43029B1C4077
:1023D0000023E7E50027E6E780255B4601242D037F
:1023E0001D43019B2D0323401C1C2D0B034BD9E5E2
:1023F000FF030000FFFFFFFEFE070000FF070000D5
:1024000002FCFFFF1E040000E2FBFFFF3E04000091
:10241000F0B54D4644465F465646F0B40E1C111CBE
:102420003203520A470F1743C5001A035800DB0F47
:102430009946520A4B0F83B01A43CB000193CF4BFE
:102440007400F60F640DB046400D984200D1E8E0EC
:102450000123494659400B1C9E4200D1B1E0261A87
:10246000002E00DC1CE1002842D1131C01990B4313
:1024700000D0E6E06B0700D18EE00F232B40042B49
:1024800000D189E02A1DAA42AD41802301264146A0
:102490006D427F191B043B400E40151C002B00D1E0
:1024A00083E0B64B01349C4200D116E13A1CB44B98
:1024B000ED081A405007640552020543120B640DE3
:1024C000002112030B0D1B056405120B1A43630850
:1024D000AC4CF60714401C43640064083443281CC9
:1024E000211C03B03CBC90469946A246AB46F0BDC9
:1024F000A24B9C42BED080231B041A43382E00DD21
:1025000003E11F2E00DD3FE12020831B9946131CB1
:1025100049468B409C46019B6046F340034301982B
:10252000F2408840011C481E81410B43EB1A9D423A
:1025300080411D1CBA1A4042171A3B0200D4A8E081
:102540007A02560A002E00D1CAE0301C00F04CFB83
:10255000031C083B1F2B00DDCBE02822291C121A8C
:10256000D1409E400A1C9D4032439C4200DDC8E0A1
:102570001C1B671C1F2F00DDEDE01F23291C1C1BEB
:10258000131CA540A340F9406C1EA541FA40194315
:102590000D43171C00246DE78023012642461B04CF
:1025A0003B401640002B00D07BE7744BED087807CA
:1025B0000543FA089C423BD012036405120B640DDC
:1025C0007EE7231A9A46002B00DCA5E0002844D0C1
:1025D0006A48844200D14DE78020000402435346FC
:1025E000382B00DC1CE1019B1A43511E8A41D1B2F9
:1025F00000224919A94280410D1CD21940421718E6
:102600003B0246D55D4B01349C4200D169E101207B
:102610005B4A6B083A4028401843D50705435708E2
:1026200028E7131C01990B4300D111E74B4613E730
:102630002B1C134351D080231B031A431203120B8C
:102640003EE7013E002E00D080E0691A8D429B419A
:10265000BA1A5B42D71A0D1C6FE7101C019B184376
:1026600000D107E701235B429C46E2445346002B1E
:1026700000D002E1019BD2195919A9429B415B424A
:10268000D7180D1CBCE76346034300D128E1071CA3
:1026900065466B0700D0F0E6012643461E4084E7FE
:1026A000002E00D081E0601C4005400D012800DCB8
:1026B00007E10199681A84466545B641B81A764221
:1026C000861B300200D4A1E08C464D1BAC458941ED
:1026D000D21B4942561A984634E700220025EFE6FD
:1026E000281C00F081FA2030031C083B1F2B00DC63
:1026F00033E7021C283A95402A1C00259C4200DC46
:1027000036E71F4FE41A1740B4E6019B1A43511EE7
:102710008A41D3B2002209E7002B00D001E1601CFE
:1027200043055B0D012B00DCB0E0144B984200D157
:102730001EE1019BD2195919A9429B415B42D21853
:102740004908D5070D435708041C93E60B4B9C42E0
:1027500000D0D3E68EE6211C131C1F39CB40191C78
:10276000202F00D18EE03F231C1BA24015436A1E80
:10277000954100270D4300248BE7C046FF0700006A
:10278000FFFF7FFFFFFF0F80331C101C203BD84052
:10279000202E79D040239B1B9A40131C019A13438F
:1027A000591E8B4100220343C0E6002C53D0C74C76
:1027B000A04200D1B0E0802471428946240427431E
:1027C0004946382900DDCDE01F2900DD59E12024EC
:1027D0003E1C611A8E408A46B04649462E1CCE40A9
:1027E0005146B4468D4064464646494626436C1ED3
:1027F000A541CF4035430199D71B8C464D1BAC45B5
:1028000092415242BF1A041C984696E663466546BA
:10281000334300D096E60026002700240025C4E6B6
:102820001F2B61DC2020C31A9B46131C59468B408A
:1028300051469946019BCB409C464B46604603431C
:102840009C465B46019999406346481E8141194365
:102850005346DA40CDE63C1C2C435DD0F14389461B
:10286000002955D10199D21B8C464D1BAC4589419D
:102870004942571A041C98465FE69448844200D0A7
:10288000ADE6F7E5002271E7002387E73B1C2B4309
:10289000002C00D0DAE0002B00D113E1131C0199C9
:1028A0000B4300D1E6E54919A9429B41D2195B428D
:1028B000D7183B0200D421E1854B0D1C1F40041C9E
:1028C000D8E5381C2843002C40D1002800D083E0F4
:1028D000101C0199084303D0171C0D1C9846C9E52C
:1028E00000260027002560E65046131C2038C34010
:1028F000181C5346202B00D1C1E0402351465B1ADF
:102900009A40019911434A1E91410022014370E609
:102910006E4CA04200D053E7171C019D041C984642
:10292000A8E5002C28D13C1C2C4300D18AE0DB43D5
:102930009A46002B00D082E0019BD2199C46654448
:102940009D42894149425718041C59E600285BD131
:10295000101C0199084300D1A4E0171C0D1C9846D7
:102960005A4C87E53D436F1EBD410027EDB242E75B
:10297000041C0027002518E6544CA04262D05346A0
:1029800080245B429A46240427435346382B00DDBB
:102990008EE01F2B00DD9DE02024E31A9B463B1CAC
:1029A00059468B40514699462B1CCB409C464B4682
:1029B000644623439C465B469D4063466C1EA5418E
:1029C000CF401D43019BBF189C4665449D429241E8
:1029D0005242BF18041C13E6101C0199084300D191
:1029E00048E5681A844685428041BE1A4042301A42
:1029F000060200D447E68C464D1BAC458941D21BEC
:102A00004942571A984635E5101C0199084334D0BD
:102A100080247807ED08FF0824032843274208D0C4
:102A2000D608264205D1C90852070A43101C371C94
:102A30009846FF00420F1743C500244C1AE5234C6B
:102A4000A042A2D1171C019D041C13E5002B35D018
:102A5000131C01990B4310D080247807ED08FF0860
:102A6000240328432742E4D0D3082342E1D1C908F4
:102A700052070A43101C1F1CDBE7144CFAE4002227
:102A80003FE74C463E1C203CE6404946341C20298A
:102A900032D04026761AB7403D436F1EBD41002715
:102AA0002543A8E680270026FF03084C00257CE587
:102AB0003D436F1EBD410027EDB283E7171C019D0A
:102AC000024CD7E4171C019DD4E4C046FF07000068
:102AD000FFFF7FFF54463B1C203CE3401C1C534639
:102AE000202B0DD0402351465B1A9F403D436F1E63
:102AF000BD410027254365E70027CDE70D1CC8E54C
:102B00000027F3E70B0330B5134C1A0B4B00051CE1
:102B10005B0DC90F0020A34210DD104883420EDC7C
:102B200080200F4C40030243E41A1F2C0ADD0D489D
:102B3000C31ADA40131C48424340581830BD0A4BB0
:102B4000C818FBE7281CE040084CA44663449A40A0
:102B5000131C0343EFE7C046FE0300001D04000002
:102B60003304000013040000FFFFFF7FEDFBFFFFB5
:102B700038B5041E16D0C50F00D04442201C00F00A
:102B800033F8174B1B1A0A2821DC021C211C1532B2
:102B900091400A1C0B21081AC4405B052403240B36
:102BA0005B0D03E000250023002400220021101CFF
:102BB00024030A0D1205240B14430A4A1B05144072
:102BC0001C436400ED0764082C43211C38BD0B38FE
:102BD00084405B052403240B5B0D0022E6E7C0461E
:102BE0001E040000FFFF0F801C2101231B049842DC
:102BF00001D3000C10391B0A984201D3000A08398E
:102C00001B09984201D30009043902A2105C401844
:102C10007047C046040302020101010100000000E8
:102C200000000000FB21F93FFB2109407CD9124044
:102C3000FB2119407A6A1F407CD92240BBFD254008
:102C4000FB2129403A462C407A6A2F405C473140AC
:102C50007CD932409C6B3440BBFD3540DB8F374024
:102C6000FB2139401BB43A403A463C405AD83D40DB
:102C70007A6A3F404C7E40405C4741406C10424085
:102C80007CD942408CA243409C6B4440AC344540CC
:102C9000BBFD4540CBC64640DB8F4740EB58484024
:102CA000FB21494083F9A200444E6E00FC29150027
:102CB000D1572700DD34F50062DBC0003C99950058
:102CC000419043006351FE00BBDEAB00B761C5001D
:102CD0003A6E2400D24D42004906E00009EA2E0077
:102CE0001C92D100EB1DFE0029B11C00E83EA7009C
:102CF000F535820044BB2E009CE98400B4267000A8
:102D0000417E5F00D6913900538339009CF439002D
:102D10008B5F840028F9BD00F81F3B00DEFF9700A1
:102D20000F980500112FEF000A5A8B006D1F6D00E0
:102D3000CF7E360009CB2700464FB7009E663F0086
:102D40002DEA5F00BA277500E5EBC7003D7BF10077
:102D5000F739070092528A00FB6BEA001FB15F004F
:102D6000085D8D00300356007BFC4600F0AB6B0025
:102D700020BCCF0036F49A00E3A91D005E619100EB
:102D8000081BE60085996500A0145F008D4068006F
:102D900080D8FF0027734D0006063100CA56150083
:102DA000C9A873007BE260006B8CC00002000000C9
:102DB0000300000004000000060000000000000006
:102DC00000000040FB21F93F000000002D44743E4C
:102DD000000000809846F83C0000006051CC783B31
:102DE00000000080831BF0390000004020257A3865
:102DF000000000802282E336000000001DF36935E8
:102E0000C8200000A6200000A62000009A20000094
:102E10008E1F00008E1F00008E2000009A200000F0
:102E20008E1F00008E2000008E1F00009A200000E0
:102E3000921F0000921F0000921F0000A8220000B5
:0400000300000051A8
:00000001FF
