:10000000200800103D020000000000000000000079
:1000100000000000000000000000000000000000E0
:10002000F0B542464B4654465D4666467CB46A4649
:1000300002608D467CBCB446AB46A24699469046CB
:10004000F0BDC04608B5034B186803681B689847A5
:1000500008BDC046140000100C4BF0B598680C4B5E
:10006000C043196800021A1C000A0A4B884208D2D1
:100070001E685F68802400256404A4197D411C600B
:100080005D6010601A6859681043F0BD10E000E030
:100090001000001008000010D0B5041C161C1F1C16
:1000A000FFF7DAFF36184F41201C044B26616761C9
:1000B0000C301968FFF7B4FFD0BDC046180000101F
:1000C0008021114A38B5D36F49020B430721041C24
:1000D000D3670E4A13688B4313600D4A19311368B6
:1000E0000B43136001230B4D5B422B60201C0A4A1B
:1000F0000023FFF7D1FF0023201C2B60064A0023BA
:10010000FFF7CAFFEEE7C04604800440A040044069
:10011000008001508000015040771B008021124A6E
:1001200038B5D36F49020B430721041CD3670F4A2C
:1001300013688B4379310B4313600D4A7039136890
:100140000B43136001230B4D5B422B60201C0A4ABA
:100150000023FFF7A1FF0023201C2B60064A002389
:10016000FFF79AFFEEE7C046048004409440044045
:100170000080015040000150804F1200F7B5051C6F
:10018000009001912F1C019B9C002C19A742F9D0D3
:1001900040CFFFF761FF73698B42F7DC02D133690F
:1001A0008342F3D8034B0448F1681E60FFF738FF21
:1001B000E8E7C04614000010180000101423F0B542
:1001C00095B0059300260023002750200A93089637
:1001D000099700F05FF8144B04ADC364134BA8609B
:1001E000049314230D9300232830E86050201293C9
:1001F0001096119700F04EF800220B4B0CACC36424
:100200000B4BA0600C930B4B2830E0601A600A4A3D
:1002100068465A6000229A6001321A6002210095F5
:100220000194FFF7ABFFC04645000000C802000084
:10023000D802000010E000E0FFFFFF00002210499C
:10024000104B10B55B1A9B0801339B00101D9842A0
:1002500004D000248A181460021CF7E700220A491F
:100260000A4B5B1A9B0801339B00101D984204D077
:10027000074CA4588C50021CF7E7FFF79FFFFEE7DE
:10028000080000101C000010000000100400001006
:10029000E00200000330C31706499B0F1B180A68D1
:1002A0009B109B00D3180B60034900208B4200D8A1
:1002B000101C70470000001000100010000000002B
:1002C00000000000000000001D0100000000000010
:1002D0000000000000000000C1000000000000005D
:0402E00020080010E2
:040000030000023DBA
:00000001FF
