:1000000020080010B1010000000000000000000006
:1000100000000000000000000000000000000000E0
:10002000F0B542464B4654465D4666467CB46A4649
:1000300002608D467CBCB446AB46A24699469046CB
:10004000F0BDC04608B5034B186803681B689847A5
:1000500008BDC046140000100C4BF0B598680C4B5E
:10006000C043196800021A1C000A0A4B884208D2D1
:100070001E685F68802400256404A4197D411C600B
:100080005D6010601A6859681043F0BD10E000E030
:100090001000001008000010D0B5041C161C1F1C16
:1000A000FFF7DAFF36184F41201C044B26616761C9
:1000B00008301968FFF7B4FFD0BDC0461800001023
:1000C0008021114A38B5D36F49020B430721041C24
:1000D000D3670E4A13688B4313600D4A19311368B6
:1000E0000B43136001230B4D5B422B60201C0A4A1B
:1000F0000023FFF7D1FF0023201C2B60064A0023BA
:10010000FFF7CAFFEEE7C04604800440A040044069
:10011000008001508000015040771B00F7B5051C9E
:10012000009001912F1C019B9C002C19A742F9D033
:1001300040CFFFF791FF73698B42F7DC02D133693F
:100140008342F3D8034B0448B1681E60FFF768FF91
:10015000E8E7C046140000101800001030B5002277
:1001600001250F4B0F491A6085B0596018209A601D
:100170001D6000F049F8041C502000F045F80A4BBF
:100180000022C36400236060226163612830074B52
:10019000A060291C01A823600194FFF7BFFFC0469F
:1001A00010E000E0FFFFFF00450000003802000003
:1001B00000221049104B10B55B1A9B0801339B00BD
:1001C000101D984204D000248A181460021CF7E71E
:1001D00000220A490A4B5B1A9B0801339B00101D41
:1001E000984204D0074CA4588C50021CF7E7FFF744
:1001F000B5FFFEE7080000101C0000100000001012
:1002000004000010400200000330C31706499B0F92
:100210001B180A689B109B00D3180B600349002031
:100220008B4200D8101C7047000000100010001016
:100230000000000000000000C100000000000000FD
:040240002008001082
:04000003000001B147
:00000001FF
