:1000000068040010DD060000000000000000000091
:1000100000000000000000000000000000000000E0
:1000200010B5042801DC092905DD094B02221968F5
:100030000A431A600BE0A022D20500048023801836
:100040001B020124C2588C40211C1143C15010BD19
:100050000C00001010B5042803DC092901DC012A7A
:1000600005D90E4B042219680A431A6014E00004F3
:100070000B4B012A08D1A024E4050019C4588A407A
:10008000111C2143C15007E0A022D2058018C2589C
:1000900001248C40A243C25010BDC0460C00001089
:1000A000FC3F0000042801DC092905DD094B08227A
:1000B00019680A431A600BE0A022074B0004D2051E
:1000C0008018C05801238B401840411E8841C0B29F
:1000D0007047C0460C000010FC3F0000034A044B70
:1000E0008020D1588143D1507047C0460000015054
:1000F000FC3F0000034A044B8020D1580143D150FB
:100100007047C04600000150FC3F000008B5054A9A
:1001100080231B02D15880200143D150FFF7EAFF12
:1001200008BDC04600000150F8B5061C00F03EF8BE
:10013000051C2C1C1A34FFF7D1FF201C00F03CF8E2
:100140002F1CEA37F30702D4FFF7C8FF01E0FFF7DF
:10015000D1FF1A34201C760800F02EF8BC42F1D1F1
:10016000FFF7C8FF8F235B00E81800F025F8F8BD03
:1001700010B5041C2078002803D0FFF7D5FF013408
:10018000F8E710BD074B8022D96F92000A43DA6767
:10019000054B00220B211A67D9609A6001225A6030
:1001A0007047C0460480044000400140014B9868FD
:1001B0007047C04600400140024B9B689842FBD804
:1001C0007047C04600400140034B10B59C689A68D8
:1001D00001199142FBD810BD0040014000230928BD
:1001E00002DC024B8000C358181C7047140000103A
:1001F000014B8000C1507047140000100A4B0B4A9D
:10020000196890689268401A10B580B21A6000238D
:10021000074A9C58211A002900DC00219950043318
:10022000282BF5D110BDC046100000100040014041
:100230001400001070B5094D094C0A4E29600A4D92
:1002400032602B602060FFF7EBFE31682068FFF71B
:10025000E7FE29682068FFF7E3FE70BD5800001034
:10026000640000105C00001060000010F7B51B4B2C
:10027000041C18681A4B0D1C002219686519FFF739
:10028000E9FE0195019B9C4220D007252378134E5F
:10029000144FAB407F229343DBB2306839680022B1
:1002A0000093FFF7D7FE104B30681968009BDA09FE
:1002B000FFF7D0FE306839680122FFF7CBFE0A2035
:1002C000FFF782FF013DE1D20134DBE7034B01225E
:1002D0001868034B1968FFF7BDFEF7BD64000010F6
:1002E0005C000010600000105800001010B5114BA9
:1002F000041CE022012908D0D022022905D0B02216
:10030000032902D0042901D110221A600A4A1B686D
:1003100050780F2101400B43101C02215370FFF74E
:10032000A5FFE11C0020FFF7BDFE43425841C0B2CB
:1003300010BDC046500000104C000010012008B550
:10034000011CFFF7D3FF312300284CD101200221EB
:10035000FFF7CCFF3423002845D101200321FFF70C
:10036000C5FF372300283ED101200421FFF7BEFF3F
:100370002A23002837D102200121FFF7B7FF3223BB
:10038000002830D10220011CFFF7B0FF35230028E0
:1003900029D102200321FFF7A9FF3823002822D109
:1003A00002200421FFF7A2FF302300281BD10320E5
:1003B0000121FFF79BFF3323002814D103200221E2
:1003C000FFF794FF362300280DD10320011CFFF70F
:1003D0008DFF3923002806D103200421FFF786FF73
:1003E000031E00D02323181C08BD000010B5041EF6
:1003F000632C00DD6324201C0A2100F09BF9044BD0
:1004000018600A235B425843024B24181C6010BD3D
:100410004000001044000010074B1A68002A08D161
:10042000064A1168002906D00920013918601160B8
:1004300001E0013A1A6070474400001040000010CB
:1004400008B5031C5A1C084860210A434270012B5E
:1004500001D1064B00E0064B1B68064A0221D35C23
:100460000370FFF703FF08BD4C00001044000010AC
:10047000400000100000001008B5C2B207210020A3
:10048000FFF7E8FD08BD0000F0B5724D724C87B073
:100490000023092202212B6022600293039104931E
:1004A0000127FFF7ABFE0020FFF798FE061E0AD1DA
:1004B000049A01235A40D0B20492FFF7C1FF301CC6
:1004C0006649FFF795FE0120FFF788FE002805D159
:1004D00001206349FFF78CFEFFF79EFF2B68002B7E
:1004E00021DD0220FFF77AFE00285FD10320FFF70D
:1004F00075FE002813D12A680A2149425143236816
:10050000FA20C91A800000F015F9564A8118032014
:10051000FFF76EFE01231A1C7A40171C1F40381C7F
:10052000FFF7AAFF42E02368002B3FDD0420FFF71E
:1005300055FE002829D123684948D90FC918491008
:1005400049420F3100F0F6F8011C0420FFF750FE7D
:100550000299002926D00320FFF740FE002819D178
:100560002A680A21494251432368FA20C91A4000E7
:1005700000F0E0F83C4A81180320FFF739FE012320
:100580001A1C7A40171C1F4004E0029A002AE2D08D
:10059000012303E0381CFFF76FFF002305210293BE
:1005A000039103E001220523029203930520FFF744
:1005B00015FE00280BD105202949FFF719FE0399E4
:1005C000274800F0B7F8011C0220FFF711FE0620B3
:1005D000FFF704FE002800D063E72449244B097884
:1005E00060220591012004211A60FFF77FFE214E51
:1005F0000190002802D00123337026E03378002BCD
:1006000023D0FFF79BFE194A1070232808D1019BC5
:100610003370194E3068FFF7E9FE0199316014E03C
:10062000059A904211D03038C3B2092B0DD8134A25
:10063000114B1178012903D11860019B137004E05C
:1006400019680A224A431018186006200C49FFF75F
:10065000CFFD26E7400000104400001010270000E6
:1006600040420F0046050000520300004E000010FB
:100670005000001054000010480000103C00001012
:10068000400D030007B5FFF77DFDFFF73FFD092390
:10069000082201200421FFF7CDFD00200721FFF7EC
:1006A000BFFC002007210122FFF7D4FC0020021C20
:1006B0000621FFF7CFFC0648FFF75AFD01A80023EB
:1006C000022103704370FFF7D1FDFFF7DDFEC04646
:1006D000F407000008B5FFF7D5FF000010B50F4B79
:1006E0000F4A191D043B934203D000221A600B1CD1
:1006F000F6E70C4A0C490023891A89080131890060
:1007000004338B4207D0094CD0181C19043C2468D0
:1007100004380460F4E7FFF7DDFFFEE71000001087
:1007200068000010000000100C0000100C08000011
:1007300000207047002941D010B4041C4C40A4464E
:1007400001230022002900D54942002800D540425B
:1007500088422CD301242407A14204D2814202D230
:1007600009011B01F8E7E400A14204D2814202D250
:1007700049005B00F8E7884201D3401A1A434C084D
:10078000A04202D3001B5C0822438C08A04202D383
:10079000001B9C082243CC08A04202D3001BDC08AB
:1007A0002243002803D01B0901D00909E3E7101CEC
:1007B0006446002C00D5404210BC7047002806D08B
:1007C00003DB0020C043400801E08020000607B49E
:1007D000024802A14018029003BDC04655FFFFFF2A
:1007E0000029EBD003B5FFF7A7FF0EBC4243891ADF
:1007F0001847C0465374617274696E672070726FD7
:0C0800006772616D2E2E2E0A00000000B1
:0C080C0018BB94913351509B1011000058
:04000003000006DD16
:00000001FF
