:10000000400400104D070000000000000000000048
:1000100000000000000000000000000000000000E0
:1000200010B5042801DC092905DD094B02221968F5
:100030000A431A600BE0A022D20500048023801836
:100040001B020124C2588C40211C1143C15010BD19
:100050000C00001010B5042803DC092901DC012A7A
:1000600005D90E4B042219680A431A6014E00004F3
:100070000B4B012A08D1A024E4050019C4588A407A
:10008000111C2143C15007E0A022D2058018C2589C
:1000900001248C40A243C25010BDC0460C00001089
:1000A000FC3F0000042801DC092905DD094B08227A
:1000B00019680A431A600BE0A022074B0004D2051E
:1000C0008018C05801238B401840411E8841C0B29F
:1000D0007047C0460C000010FC3F0000034A044B70
:1000E0008020D1588143D1507047C0460000015054
:1000F000FC3F0000034A044B8020D1580143D150FB
:100100007047C04600000150FC3F000008B5054A9A
:1001100080231B02D15880200143D150FFF7EAFF12
:1001200008BDC04600000150F8B5061C00F064F898
:10013000051C2C1C1A34FFF7D1FF201C00F062F8BC
:100140002F1CEA37F30702D4FFF7C8FF01E0FFF7DF
:10015000D1FF1A34201C760800F054F8BC42F1D1CB
:10016000FFF7C8FF8F235B00E81800F04BF8F8BDDD
:1001700010B5041C2078002803D0FFF7D5FF013408
:10018000F8E710BD10B5041C80231B069C4203D168
:100190000E48FFF7EDFF17E0002C04DA2D20FFF7E3
:1001A000C3FF6442F0E7201C0A2100F0FBFA00289C
:1001B00001D0FFF7E7FF201C0A2100F049FB081CD3
:1001C0003030C0B2FFF7B0FF10BDC0466408000079
:1001D000074B8022D96F92000A43DA67054B002251
:1001E0000B211A67D9609A6001225A607047C04695
:1001F0000480044000400140014B98687047C046AD
:1002000000400140024B9B689842FBD87047C046B3
:1002100000400140034B10B59C689A680119914257
:10022000FBD810BD0040014070B5094D094C0A4E85
:1002300029600A4D32602B602060FFF7F1FE3168C3
:100240002068FFF7EDFE29682068FFF7E9FE70BD22
:100250002C00001038000010300000103400001096
:10026000F7B51B4B041C18681A4B0D1C00221968AB
:100270006519FFF7EFFE0195019B9C4220D00725F1
:100280002378134E144FAB407F229343DBB2306888
:10029000396800220093FFF7DDFE104B30681968C3
:1002A000009BDA09FFF7D6FE306839680122FFF7B4
:1002B000D1FE0A20FFF7AEFF013DE1D20134DBE7BA
:1002C000034B01221868034B1968FFF7C3FEF7BD03
:1002D0003800001030000010340000102C00001016
:1002E00010B5114B041CE022012908D0D0220229AC
:1002F00005D0B022032902D0042901D110221A60AE
:100300000A4A1B6850780F2101400B43101C022140
:100310005370FFF7A5FFE11C0020FFF7C3FE434227
:100320005841C0B210BDC04624000010200000108B
:10033000012008B5011CFFF7D3FF312300284CD161
:1003400001200221FFF7CCFF3423002845D10120F2
:100350000321FFF7C5FF372300283ED101200421E8
:10036000FFF7BEFF2A23002837D102200121FFF723
:10037000B7FF3223002830D10220011CFFF7B0FF65
:100380003523002829D102200321FFF7A9FF3823B4
:10039000002822D102200421FFF7A2FF30230028E9
:1003A0001BD103200121FFF79BFF3323002814D129
:1003B00003200221FFF794FF362300280DD10320EC
:1003C000011CFFF78DFF3923002806D103200421EB
:1003D000FFF786FF031E00D02323181C08BD000072
:1003E00010B5041C0C48FFF7C3FE201CFFF7CAFE23
:1003F0000A48FFF7BDFE632C00DD6324201C0A21A0
:1004000000F0D0F9064B18600A235B425843054BB5
:1004100024181C6010BDC046700800009908000038
:100420001400001018000010074B1A68002A08D1A9
:10043000064A1168002906D00920013918601160A8
:1004400001E0013A1A607047180000101400001013
:1004500008B560221043054A054B525C58700221D2
:10046000181C1A70FFF7FCFE08BDC0460000001003
:100470002000001008B5C2B207210020FFF7EAFDF6
:1004800008BD0000F0B58E4BFF225A708D4A09233B
:1004900013608D4A8BB01360FFF7AEFEFFF7ACFE22
:1004A000FFF7AAFE8949012641180591FFF7A4FE2E
:1004B000874A82180692FFF79FFE071CFFF79CFEF3
:1004C000FFF79AFE834BC3180793FFF795FE7F490A
:1004D00041180891FFF790FE7F4A82180192FFF7BA
:1004E0008BFE7D4B0021C3180222099302910392D7
:1004F0000491FFF781FE089B984206D9FFF77CFE26
:10050000724941180891FFF78FFFFFF775FE079AB0
:10051000904216D9049B022B07D16A4B012019780F
:10052000FFF796FF0121049106E0674B022019783E
:10053000FFF78EFF02220492FFF75EFE654BC318A1
:100540000793604C216800291FDDFFF755FE069ACE
:10055000904261D9FFF750FE874212D223680A21E8
:1005600049425943584BFA201B688000C91A00F0D1
:1005700019F95A4BC01801231A1C7240161C3F1857
:100580001E40301CFFF776FF46E04F4C21680029E3
:1005900042DDFFF731FE099A904211D9FFF72CFE98
:1005A0002368051CD90FC918491049420A31474828
:1005B00000F0F8F8029B28180990002B23D002E0E5
:1005C0000299002924D1FFF717FE874213D23D4B31
:1005D0000A211B68494259433B4BFA201B688000A3
:1005E000C91A00F0DFF83D4A012380181A1C724036
:1005F000161C3F181E40301CFFF73CFF002305214E
:100600000293039108E0012205230292039303E081
:100610000121052202910392FFF7EEFD059B98420E
:100620000DD9FFF7E9FD294941180591FFF7E4FDD0
:100630000399041C254800F0B5F820180690FFF730
:10064000DBFD019A904200D853E7254B60221A60E7
:10065000244B01201B7804210193FFF741FE224D1A
:10066000041E02D001232B7023E02B78002B20D016
:10067000FFF75EFE1B490870232806D12C701B4D26
:100680002868FFF7ADFE2C6013E0019A904210D06D
:100690003038C3B2092B0CD8154A144B11780129F4
:1006A00002D11860147004E019680A224A43101835
:1006B0001860FFF7A1FD084A8218019219E7C046A9
:1006C00020000010140000101800001040420F001D
:1006D00020A1070010270000400D0300D2050000F4
:1006E0002400001022000010280000101C00001040
:1006F0001000001007B5FFF76BFDFFF707FD09239A
:10070000082201200421FFF78FFD00200721FFF7B9
:1007100087FC002007210122FFF79CFC0020021C1F
:100720000621FFF797FC0648FFF722FD01A80023EA
:10073000022103704370FFF793FDFFF7A3FEC0464D
:100740008308000008B5FFF7D5FF000010B50F4B78
:100750000F4A191D043B934203D000221A600B1C60
:10076000F6E70C4A0C490023891A890801318900EF
:1007700004338B4207D0094CD0181C19043C246860
:1007800004380460F4E7FFF7DDFFFEE71000001017
:100790003C000010000000100C0000109C0800003D
:1007A00000207047002941D010B4041C4C40A446DE
:1007B00001230022002900D54942002800D54042EB
:1007C00088422CD301242407A14204D2814202D2C0
:1007D00009011B01F8E7E400A14204D2814202D2E0
:1007E00049005B00F8E7884201D3401A1A434C08DD
:1007F000A04202D3001B5C0822438C08A04202D313
:10080000001B9C082243CC08A04202D3001BDC083A
:100810002243002803D01B0901D00909E3E7101C7B
:100820006446002C00D5404210BC7047002806D01A
:1008300003DB0020C043400801E08020000607B42D
:10084000024802A14018029003BDC04655FFFFFFB9
:100850000029EBD003B5FFF7A7FF0EBC4243891A6E
:100860001847C0462D3231343734383336343800E7
:1008700073656C65637465642074696D6520697364
:100880003A20005374617274696E672070726F67EA
:0C08900072616D7364662E2E2E0A00004B
:0C089C0018BB94913351509B10110000C8
:040000030000074DA5
:00000001FF
