:1000000038040010A10400000000000000000000FF
:1000100000000000000000000000000000000000E0
:1000200010B5042801DC092905DD094B02221968F5
:100030000A431A600BE0A022D20500048023801836
:100040001B020124C2588C40211C1143C15010BD19
:100050001000001010B5042803DC092901DC012A76
:1000600005D90E4B042219680A431A6014E00004F3
:100070000B4B012A08D1A024E4050019C4588A407A
:10008000111C2143C15007E0A022D2058018C2589C
:1000900001248C40A243C25010BDC0461000001085
:1000A000FC3F0000042801DC092905DD094B08227A
:1000B00019680A431A600BE0A022074B0004D2051E
:1000C0008018C05801238B401840411E8841C0B29F
:1000D0007047C04610000010FC3F0000034A044B6C
:1000E0008020D1588143D1507047C0460000015054
:1000F000FC3F0000034A044B8020D1580143D150FB
:100100007047C04600000150FC3F000008B5054A9A
:1001100080231B02D15880200143D150FFF7EAFF12
:1001200008BDC04600000150F8B5061C00F03EF8BE
:10013000051C2C1C1A34FFF7D1FF201C00F03CF8E2
:100140002F1CEA37F30702D4FFF7C8FF01E0FFF7DF
:10015000D1FF1A34201C760800F02EF8BC42F1D1F1
:10016000FFF7C8FF8F235B00E81800F025F8F8BD03
:1001700010B5041C2078002803D0FFF7D5FF013408
:10018000F8E710BD074B8022D96F92000A43DA6767
:10019000054B00220B211A67D9609A6001225A6030
:1001A0007047C0460480044000400140014B9868FD
:1001B0007047C04600400140024B9B689842FBD804
:1001C0007047C04600400140034B10B59C689A68D8
:1001D00001199142FBD810BD0040014070B5094D96
:1001E000094C0A4E29600A4D32602B602060FFF7EF
:1001F00017FF31682068FFF713FF29682068FFF7B1
:100200000FFF70BD24000010300000102800001007
:100210002C000010F7B51B4B041C18681A4B0D1C62
:10022000002219686519FFF715FF0195019B9C4293
:1002300020D007252378134E144FAB407F229343E1
:10024000DBB23068396800220093FFF703FF104BE0
:1002500030681968009BDA09FFF7FCFE30683968DE
:100260000122FFF7F7FE0A20FFF7AEFF013DE1D2C2
:100270000134DBE7034B01221868034B1968FFF7D1
:10028000E9FEF7BD30000010280000102C0000101F
:100290002400001010B5114B041CE022012908D0E5
:1002A000D022022905D0B022032902D0042901D18D
:1002B00010221A600A4A1B6850780F2101400B4334
:1002C000101C02215370FFF7A5FFE11C0020FFF76F
:1002D000E9FE43425841C0B210BDC04620000010A4
:1002E0001C000010012008B5011CFFF7D3FF3123CB
:1002F00000284CD101200221FFF7CCFF3423002835
:1003000045D101200321FFF7C5FF372300283ED147
:1003100001200421FFF7BEFF2A23002837D1022045
:100320000121FFF7B7FF3223002830D10220011C42
:10033000FFF7B0FF3523002829D102200321FFF762
:10034000A9FF3823002822D102200421FFF7A2FFB1
:10035000302300281BD103200121FFF79BFF33230B
:10036000002814D103200221FFF794FF3623002830
:100370000DD10320011CFFF78DFF3923002806D182
:1003800003200421FFF786FF031E00D02323181C3F
:1003900008BD0000F7B5274CFF2363700026002737
:1003A000FFF704FF244B1B68C3180193FFF7FEFE01
:1003B000019B984237D2214A214D127860232B604D
:1003C0000092FFF78FFF1D4B009A187090420DD0DE
:1003D0001C4B30381A781C4B002A01D1186005E0FC
:1003E0001E680A2256433218071C1A602A68012325
:1003F00013430A206370FFF7E7FE144A201C935D45
:1004000002212370FFF706FF2B6802252B430A20E9
:100410006370FFF7D9FE0D4A201CD35D291C2370A1
:10042000FFF7F8FEC2E70137092FB9DD0136092EC3
:10043000B5DDF7BD1C000010000000101E0000100C
:10044000200000101400001018000010040000101C
:1004500007B5FFF797FEFFF759FE09230120042196
:100460000822FFF7BBFE002007210122FFF7F2FD63
:1004700000200621021CFFF7EDFD0648FFF778FE7D
:1004800001A80023022103704370FFF7C3FEFFF7AA
:1004900081FFFCE7F404000008B5FFF7D9FF000076
:1004A00010B50F4B0F4A191D043B934203D0002295
:1004B0001A600B1CF6E70C4A0C490023891A8908BC
:1004C0000131890004338B4207D0094CD0181C1924
:1004D000043C246804380460F4E7FFF7DDFFFEE71E
:1004E0001400001034000010000000101000001074
:1004F0000C0500005374617274696E672070726F2E
:0C0500006772616D7364662E2E2E0A0077
:10050C0040420F0018BB94913351509B10110000C6
:04000003000004A154
:00000001FF
