:1000000010080010F10000000000000000000000D7
:1000100000000000000000000000000000000000E0
:100020000C4BF0B598680C4BC043196800021A1CC1
:10003000000A0A4B884208D21E685F6880240025A7
:100040006404A4197D411C605D6010601A685968E1
:100050001043F0BD10E000E00800001000000010A8
:1000600038B5041C0D1CFFF7DBFF24184D41FFF7CA
:10007000D7FF8D42FBDC01D18442F8D838BD0000A7
:100080000022144B144910B51A60596080219A60FF
:1000900001321A60114A4902D36F0B430721D3671B
:1000A0000F4A13688B4379310B4313600D4A703943
:1000B00013680B43136001230B4C5B4223600B4816
:1000C0000021FFF7CDFF0023084823600021FFF740
:1000D000C7FFF0E710E000E0FFFFFF0004800440EE
:1000E000944004400080015040000150804F1200B5
:1000F00000221049104B10B55B1A9B0801339B007E
:10010000101D984204D000248A181460021CF7E7DE
:1001100000220A490A4B5B1A9B0801339B00101D01
:10012000984204D0074CA4588C50021CF7E7FFF704
:10013000A7FFFEE7000000100C00001000000010F8
:0801400000000010480100005E
:04000003000000F108
:00000001FF
