:100000000804001061010000000000000000000072
:1000100000000000000000000000000000000000E0
:1000200010B5042801DC092905DD094B02221968F5
:100030000A431A600BE0A022D20500048023801836
:100040001B020124C2588C40211C1143C15010BD19
:100050000000001010B5042803DC092901DC012A86
:1000600005D90E4B042219680A431A6014E00004F3
:100070000B4B012A08D1A024E4050019C4588A407A
:10008000111C2143C15007E0A022D2058018C2589C
:1000900001248C40A243C25010BDC0460000001095
:1000A000FC3F0000074B8022D96F92000A43DA67B9
:1000B000054B00220B211A67D9609A6001225A6011
:1000C0007047C0460480044000400140014B9868DE
:1000D0007047C04600400140024B9B689842FBD8E5
:1000E0007047C0460040014038B5051C0C1CFFF7A6
:1000F00097FF281C211C0022FFF7ACFF38BD70B50C
:10010000161C0122051C0C1CFFF7A4FFFFF7DEFFE5
:100110008019FFF7E1FF281C211C0022FFF79AFF3E
:1001200070BD000010B501200521FFF7DDFFFFF7CE
:10013000B9FF9624A400A2B205210120FFF7DFFF3A
:10014000FFF7C4FF044B0A34C018FFF7C5FF034B89
:100150009C42F0D9EDE7C046B8880000970800003F
:1001600010B50F4B0F4A191D043B934203D00022D8
:100170001A600B1CF6E70C4A0C490023891A8908FF
:100180000131890004338B4207D0094CD0181C1967
:10019000043C246804380460F4E7FFF7C3FFFEE77B
:1001A0000400001004000010000000100000001007
:0401B000B401000096
:040000030000016197
:00000001FF
