:1000000008040010F50000000000000000000000DF
:1000100000000000000000000000000000000000E0
:1000200010B5042801DC092905DD094B02221968F5
:100030000A431A600BE0A022D20500048023801836
:100040001B020124C2588C40211C1143C15010BD19
:100050000000001010B5042803DC092901DC012A86
:1000600005D90E4B042219680A431A6014E00004F3
:100070000B4B012A08D1A024E4050019C4588A407A
:10008000111C2143C15007E0A022D2058018C2589C
:1000900001248C40A243C25010BDC0460000001095
:1000A000FC3F00000048704700350C0013B50120EC
:1000B0000421FFF7B5FF01200421021CFFF7CAFF4E
:1000C00000230193019CFFF7EDFF844202DA019BBC
:1000D0000133F6E7012004210022FFF7BBFF0023D4
:1000E0000193019CFFF7DEFF8442E4DA019B0133B8
:1000F000F6E7000010B50F4B0F4A191D043B934261
:1001000003D000221A600B1CF6E70C4A0C490023AE
:10011000891A89080131890004338B4207D0094CC0
:10012000D0181C19043C246804380460F4E7FFF775
:10013000BDFFFEE7040000100400001000000010E6
:0801400000000010480100005E
:04000003000000F504
:00000001FF
