:1000000008040010C501000000000000000000000E
:1000100000000000000000000000000000000000E0
:1000200010B5042801DC092905DD094B02221968F5
:100030000A431A600BE0A022D20500048023801836
:100040001B020124C2588C40211C1143C15010BD19
:100050000000001010B5042803DC092901DC012A86
:1000600005D90E4B042219680A431A6014E00004F3
:100070000B4B012A08D1A024E4050019C4588A407A
:10008000111C2143C15007E0A022D2058018C2589C
:1000900001248C40A243C25010BDC0460000001095
:1000A000FC3F000010B504240020211C021C013478
:1000B000FFF7D0FF082CF7D1012004210022FFF721
:1000C000C9FF012005210022FFF7C4FF211C0120E8
:1000D0000022FFF7BFFF012009210022FFF7BAFF2E
:1000E00010BD000037B50424211C00200134FFF7A7
:1000F00097FF082CF8D101200421FFF791FF012080
:100100000521FFF78DFF0120211CFFF789FF01204A
:100110000921FFF785FF0425294C072D18DC002352
:100120000193019BA34202DC019B0133F8E7FFF737
:10013000B9FF0020291C0122FFF78CFF0023019347
:10014000019BA34202DC019B0133F8E70135E3E7A1
:10015000042500230193019BA34202DC019B013390
:10016000F8E7FFF79FFF0120291C021CFFF772FF31
:1001700000230193019BA34202DC019B0133F8E7BA
:100180000135062DE5D1082500230193019BA342EB
:1001900002DC019B0133F8E7FFF784FF0120291CF3
:1001A000021CFFF757FF00230193019BA34202DCCF
:1001B000019B0133F8E701350A2DE5D1ABE7C046D5
:1001C0003F9C000010B50F4B0F4A191D043B934292
:1001D00003D000221A600B1CF6E70C4A0C490023DE
:1001E000891A89080131890004338B4207D0094CF0
:1001F000D0181C19043C246804380460F4E7FFF7A5
:1002000071FFFEE704000010040000100000001061
:080210000000001018020000BC
:04000003000001C533
:00000001FF
