:1000000008040010DD0100000000000000000000F6
:1000100000000000000000000000000000000000E0
:1000200010B5042801DC092905DD094B02221968F5
:100030000A431A600BE0A022D20500048023801836
:100040001B020124C2588C40211C1143C15010BD19
:100050000000001010B5042803DC092901DC012A86
:1000600005D90E4B042219680A431A6014E00004F3
:100070000B4B012A08D1A024E4050019C4588A407A
:10008000111C2143C15007E0A022D2058018C2589C
:1000900001248C40A243C25010BDC0460000001095
:1000A000FC3F000000487047409C000010B504244D
:1000B0000020211C021C0134FFF7CCFF082CF7D1D3
:1000C000012004210022FFF7C5FF012005210022A5
:1000D000FFF7C0FF211C01200022FFF7BBFF01201A
:1000E00009210022FFF7B6FF10BD37B50424211CFB
:1000F00000200134FFF794FF082CF8D101200421DF
:10010000FFF78EFF01200521FFF78AFF0120211C48
:10011000FFF786FF01200921FFF782FF0424072C47
:100120001CDC00230193019DFFF7BCFF854202DA2E
:10013000019B0133F6E7FFF7B9FF0020211C0122E4
:10014000FFF788FF00230193019DFFF7ABFF854276
:1001500002DA019B0133F6E70134E0E704240023CF
:100160000193019DFFF79EFF854202DA019B013357
:10017000F6E7FFF79BFF0120211C021CFFF76AFF37
:1001800000230193019DFFF78DFF854202DA019B59
:100190000133F6E70134062CE1D108240023019352
:1001A000019DFFF77FFF854202DA019B0133F6E7ED
:1001B000FFF77CFF0120211C021CFFF74BFF0023EF
:1001C0000193019DFFF76EFF854202DA019B013327
:1001D000F6E701340A2CE1D1A0E7000010B50F4B7F
:1001E0000F4A191D043B934203D000221A600B1CD6
:1001F000F6E70C4A0C490023891A89080131890065
:1002000004338B4207D0094CD0181C19043C2468D5
:1002100004380460F4E7FFF768FFFEE7040000100D
:100220000400001000000010000000103002000068
:04000003000001DD1B
:00000001FF
