:10000000080400103104000000000000000000009F
:1000100000000000000000000000000000000000E0
:1000200010B5042801DC092905DD094B01221968F6
:100030000A431A600AE0A022D20500048023801837
:100040001B02C25801248C40A243C25010BDC046BE
:100050000000001010B5042801DC092905DD094B5A
:10006000022219680A431A600BE0A022D20500049C
:10007000802380181B020124C2588C40211C11438C
:10008000C15010BD0000001010B5042803DC092980
:1000900001DC012A05D90E4B042219680A431A60B3
:1000A00014E000040B4B012A08D1A024E405001938
:1000B000C4588A40111C2143C15007E0A022D20538
:1000C0008018C25801248C40A243C25010BDC046C3
:1000D00000000010FC3F0000042801DC092905DDB8
:1000E000094B082219680A431A600BE0A022074B4B
:1000F0000004D2058018C05801238B401840411ECF
:100100008841C0B27047C04600000010FC3F0000AC
:10011000034A044B8020D1588143D1507047C046D8
:1001200000000150FC3F0000034A044B8020D158DE
:100130000143D1507047C04600000150FC3F000011
:1001400008B5054A80231B02D15880200143D150B5
:10015000FFF7EAFF08BDC04600000150F8B5061CD5
:1001600000F058F8051C2C1C1A34FFF7D1FF201C96
:1001700000F056F82F1CEA37F30702D4FFF7C8FF48
:1001800001E0FFF7D1FF1A34201C760800F048F890
:10019000BC42F1D1FFF7C8FF8F235B00E81800F0E5
:1001A0003FF8F8BD10B5041C2078002803D0FFF7F5
:1001B000D5FF0134F8E710BD08B50F231840092812
:1001C00001DC303000E03730FFF7C8FF08BD70B504
:1001D000061C0C1C8D00043D002C05DD301CE84085
:1001E000013CFFF7E9FFF6E770BD0000074B8022F6
:1001F000D96F92000A43DA67054B00220B211A6778
:10020000D9609A6001225A607047C0460480044059
:1002100000400140014B98687047C04600400140D3
:10022000024B9B689842FBD87047C0460040014093
:10023000034B10B59C689A6801199142FBD810BD18
:100240000040014010B50421041C0020FFF702FF0C
:10025000002C03D000200421012202E0201C0421F4
:10026000221CFFF711FF10BD08B500200421FFF785
:10027000D7FE00200421FFF72FFF08BD10B5041C96
:100280000020FFF7DFFF201CFFF7D2FF0120FFF760
:10029000D9FF10BD0000000010B50120FFF7D2FF0C
:1002A000FA20C000FFF7C4FFFFF7DEFF041E01D1F4
:1002B000134818E011491048FFF7E0FF1E20FFF730
:1002C000B7FFFFF7D1FF002804D00E48FFF76AFF01
:1002D00000240CE0FA208000FFF7AAFFFFF7C4FF1C
:1002E000041E03D10848FFF75DFF00E00124201C35
:1002F00010BDC046C046C046E80300000000000034
:100300008404000090040000B0040000C046C04611
:1003100008B5002802D05020002101E00A20002169
:10032000FFF7ACFF08BD38B5051C0024281CA04011
:100330007F239843C0B20134FFF7EAFF082CF5D1C0
:1003400038BD10B504210020FFF784FE0020FFF720
:1003500079FF0520FFF76CFF04210020FFF760FE06
:100360000520FFF765FFFFF77FFF041C6420FFF700
:100370005FFF201C10BD38B5082500246408FFF776
:10038000E0FF002803D080235B421C43E4B2013D20
:10039000002DF3D1201C38BD10B53320FFF7C3FF6B
:1003A0000824FFF7E8FF0221FFF711FF013C044892
:1003B000FFF7F8FE002CF4D10248FFF7F3FE10BD62
:1003C000C5040000E404000008B5FFF70FFFFFF7C5
:1003D000B7FE00200421FFF73DFE0020042101228A
:1003E000FFF752FE0D48FFF7DDFE00200421FFF766
:1003F00073FE002802D00A48FFF7D4FE0948FFF731
:1004000017FFFFF749FF002805D00748FFF7CAFE8E
:10041000FFF7C2FFE9E70548E5E7C046C70400006B
:10042000D604000020A10700E1040000E60400005B
:1004300010B50F4B0F4A191D043B934203D0002205
:100440001A600B1CF6E70C4A0C490023891A89082C
:100450000131890004338B4207D0094CD0181C1994
:10046000043C246804380460F4E7FFF7ADFFFEE7BE
:100470000400001004000010000000100000001034
:10048000EC040000737475636B20617420300A0003
:100490007465737420666F722070726573656E6325
:1004A000652070756C7365206661696C65640A000F
:1004B00070756C736520656E64696E67206661692E
:1004C0006C65640A0020004453313939302072656C
:1004D000616465720A0070696E206973206F6E0A2C
:0C04E000002A2A2A0A002D0A0000000051
:0400000300000431C4
:00000001FF
