:1000000018040010ED0200000000000000000000D5
:1000100000000000000000000000000000000000E0
:1000200010B5042801DC092905DD094B02221968F5
:100030000A431A600BE0A022D20500048023801836
:100040001B020124C2588C40211C1143C15010BD19
:100050000400001010B5042803DC092901DC012A82
:1000600005D90E4B042219680A431A6014E00004F3
:100070000B4B012A08D1A024E4050019C4588A407A
:10008000111C2143C15007E0A022D2058018C2589C
:1000900001248C40A243C25010BDC0460400001091
:1000A000FC3F0000034A044B8020D1588143D150CB
:1000B0007047C04600000150FC3F0000034A044B5B
:1000C0008020D1580143D1507047C04600000150F4
:1000D000FC3F000008B5054A80231B02D158802050
:1000E0000143D150FFF7EAFF08BDC04600000150B0
:1000F000F8B5061C00F03EF8051C2C1C1A34FFF75E
:10010000D1FF201C00F03CF82F1CEA37F30702D483
:10011000FFF7C8FF01E0FFF7D1FF1A34201C760873
:1001200000F02EF8BC42F1D1FFF7C8FF8F235B002F
:10013000E81800F025F8F8BD10B5041C2078002858
:1001400003D0FFF7D5FF0134F8E710BD074B80223D
:10015000D96F92000A43DA67054B00220B211A6718
:10016000D9609A6001225A607047C04604800440FA
:1001700000400140014B98687047C0460040014074
:10018000024B9B689842FBD87047C0460040014034
:10019000034B10B59C689A6801199142FBD810BDB9
:1001A0000040014070B5094D094C0A4E29600A4DC6
:1001B00032602B602060FFF733FF31682068FFF763
:1001C0002FFF29682068FFF72BFF70BD0800001083
:1001D000140000100C00001010000010F7B5204BA8
:1001E000041C18681F4B0D1C002219686519FFF7C5
:1001F00031FF0195019B9C4226D007230093009B71
:1002000027789F403F06FF0F381C3030C0B2FFF701
:100210006FFF134D144E286831680022FFF71AFF54
:10022000124B286819683A1CFFF714FF28683168D8
:100230000122FFF70FFF0A20FFF7AAFF009B013BF7
:100240000093DCD20134D5E70A20FFF751FF044BBD
:1002500001221868034B1968FFF7FCFEF7BDC04682
:10026000140000100C000010100000100800001016
:1002700073B5FFF76BFFFFF72DFF01200421082264
:100280000923FFF78FFF01AC00251448FFF754FF47
:1002900025706570124EFE2D09DC201C0221257090
:1002A000FFF79CFF3068FFF773FF0135F2E7002589
:1002B000201C02216570FFF791FF01353068FFF7C0
:1002C00067FFFF2DF4D10025201C022165702570E9
:1002D000FFF784FF3068FFF75BFFDBE740030000B8
:1002E0000000001008B5FFF7C3FF000010B50F4B6A
:1002F0000F4A191D043B934203D000221A600B1CC5
:10030000F6E70C4A0C490023891A89080131890053
:1003100004338B4207D0094CD0181C19043C2468C4
:1003200004380460F4E7FFF7DDFFFEE70800001083
:100330001800001000000010040000105803000016
:100340005374617274696E672070726F6772616D49
:080350002E2E2E0A0000000011
:04035800102700006A
:04000003000002ED0A
:00000001FF
